:0600000000F05EEF00F0CD
:10000800FFFF5982D9CF02F0DACF03F09EBA9DAA3A
:1000180032D0F5EC10F0AECF04F0535002E16CECA6
:1000280011F05350CF0FD96EDA6A04C0DFFF010E0A
:1000380053641AD05350CF0FD96EDA6AEE0EDE1819
:1000480013E15350CE0FD96EDA6AEE0EDE180CE1CA
:100058005350CD0FD96EDA6AEE0EDE1805E179EC51
:1000680011F0010E0001866FFFFF532A090E536439
:1000780002D07FEC10F0FFFF9DB29EA202D07FEC71
:1000880010F0FFFF9EB89DA80DD000018751525C6B
:1000980008E387518F0FD96EDA6ADF50AD6E872B70
:1000A80001D09D98FFFF03C0DAFF02C0D9FF599223
:0800B8001100FFFF63EF0FF0E0
:100600000070616765207365747570310070616793
:1006100065206D61696E0070616765206C6F676F42
:100620000076657273696F6E006D726566006D7439
:100630006668006D747068006D766F6C006D637530
:1006400072006D707474006D667277006672560089
:10065000637656006D6C63006D6264006D726400B9
:100660006D6865006D7466006D6C67006D6270008A
:100670006D6C70006D74700065727200746273004E
:090680006D7473006D72740000CA
:10068A00FFFF64EC11F0E9C014F0EAC015F0E9517B
:10069A00166EEA51176E186A196A16501402F3CFC9
:1006AA001AF0F4CF1BF01C6A1D6A1502F3501B26C0
:1006BA00F4501C22000E1D2217501402F3501B2660
:1006CA00F4501C22000E1D2217501502F3501C264E
:1006DA00F4501D2218501402F3501C26F4501D2207
:1006EA0018501502F3501D2619501402F3501D26F6
:1006FA001AC005F01BC006F01CC007F01DC008F0A8
:10070A00260E096E020E0A6E0B6A0C6ACEEC0DF00A
:10071A0005281E6E000E06201F6EE7C014F0E8C002
:10072A0015F0E751166EE851176E186A196A1650D5
:10073A001402F3CF1AF0F4CF1BF01C6A1D6A1502DB
:10074A00F3501B26F4501C22000E1D2217501402CF
:10075A00F3501B26F4501C22000E1D2217501502BE
:10076A00F3501C26F4501D2218501402F3501C2674
:10077A00F4501D2218501502F3501D261950140268
:10078A00F3501D261AC005F01BC006F01CC007F066
:10079A001DC008F0260E096E020E0A6E0B6A0C6A5C
:1007AA00CEEC0DF00528206E000E0620216EDDC06D
:1007BA0014F0DEC015F0DD51166EDE51176E186AA0
:1007CA00196A16501402F3CF1AF0F4CF1BF01C6A00
:1007DA001D6A1502F3501B26F4501C22000E1D221E
:1007EA0017501402F3501B26F4501C22000E1D222F
:1007FA0017501502F3501C26F4501D2218501402EB
:10080A00F3501C26F4501D2218501502F3501D26D1
:10081A0019501402F3501D261AC005F01BC006F029
:10082A001CC007F01DC008F0260E096E020E0A6EE3
:10083A000B6A0C6ACEEC0DF00528226E000E06201B
:10084A00236E470E0C6E1EC00DF01FC00EF00F6A0D
:10085A00106A83EC0DF031EC11F0290E0C6E20C0F9
:10086A000DF021C00EF00F6A106A83EC0DF031EC26
:10087A0011F03D0E0C6EE3C00DF0E4C00EF00F6AED
:10088A00106A83EC0DF031EC11F0380E0C6EE5C0F5
:10089A000DF0E6C00EF00F6A106A83EC0DF031EC31
:1008AA0011F0700E0C6E22C00DF023C00EF00F6A0C
:1008BA00106A83EC0DF031EC11F0540E0C6EDBC0B3
:1008CA000DF0DCC00EF00F6A106A83EC0DF031EC0B
:1008DA0011F0840E0C6ED9C005F0DAC006F0086A71
:1008EA000A0E076EE6EC0EF005C00DF006C00EF01B
:1008FA000F6A106A83EC0DF031EC11F0600E0C6E89
:10090A000001EB510D6E0E6A0F6A106A83EC0DF04E
:10091A0031EC11F0740E0C6EE1C00DF0E2C00EF075
:10092A000F6A106A83EC0DF031EC11F0640E0C6E54
:10093A00DFC00DF0E0C00EF00F6A106A83EC0DF014
:10094A0031EC11F0330E0C6E0001F0510D6E0E6A8F
:10095A000F6A106A83EC0DF031EC11F02E0E0C6E5A
:10096A000001EF510D6E0E6A0F6A106A83EC0DF0EA
:10097A0031EC11F05C0E0C6E0001F4510D6E0E6A32
:10098A000F6A106A83EC0DF031EC11F0580E0C6E00
:10099A000001F3510D6E0E6A0F6A106A83EC0DF0B6
:1009AA0031EC11F0420E0C6E0001F2510D6E0E6A1E
:1009BA000F6A106A83EC0DF031EC11F06C0E0C6EBC
:1009CA000001EE510D6E0E6A0F6A106A83EC0DF08B
:1009DA0031EC11F0800E0C6E0001EC510D6E0E6AB6
:1009EA000F6A106A83EC0DF031EC11F0680E0C6E90
:1009FA000001ED510D6E0E6A0F6A106A83EC0DF05C
:100A0A0031EC11F0A20E4CEC0EF0000928D055EC96
:100A1A0010F0040000018651FCE0AF0ECF6518D03B
:100A2A00EE0ECF6115D0CF51500F246ED00505E1DF
:100A3A00D1C005F02450D8EC0FF0020E0001D019F5
:100A4A0007E124C008F0096AD10E0A6EBCEC10F066
:100A5A00FFFFF00E0001CF19DAE1F00ED019FFFF07
:100A6A00D6E11200FFFFFFFF000E94EC10F00650D3
:100A7A000001F56F070E0714F66FF5513E6EF65139
:100A8A003F6E406A416A260E3E02F3CF42F0F4CF2F
:100A9A0043F0446A456A3F02F3504326F450442225
:100AAA00000E4522020E3E02F3504326F450442221
:100ABA00000E4522260E4002F3504426F4504522E9
:100ACA00020E3F02F3504426F4504522000E3E0225
:100ADA00F3504426F4504522260E4102F35045268F
:100AEA00020E4002F3504526000E3F02F3504526FF
:100AFA00000E3E02F350452642C00DF043C00EF0F0
:100B0A0044C00FF045C010F03AEC0FF00DC01FF0D2
:100B1A000EC020F00FC021F0D1EC08F01FC02FF05A
:100B2A0020C030F021C031F066EC0BF02FC0E9F0A4
:100B3A0030C0EAF0020E94EC10F006500001F76F94
:100B4A00010E0714F86FF7513E6EF8513F6E406A76
:100B5A00416A260E3E02F3CF42F0F4CF43F0446AD4
:100B6A00456A3F02F3504326F4504422000E4522C0
:100B7A00020E3E02F3504326F4504422000E452250
:100B8A00260E4002F3504426F4504522020E3F023C
:100B9A00F3504426F4504522000E3E02F3504426F8
:100BAA00F4504522260E4102F3504526020E400219
:100BBA00F3504526000E3F02F3504526000E3E0232
:100BCA00F350452642C00DF043C00EF044C00FF06A
:100BDA0045C010F03AEC0FF00DC01FF00EC020F027
:100BEA000FC021F0D1EC08F01FC02FF020C030F068
:100BFA0021C031F066EC0BF02FC0E7F030C0E8F00E
:100C0A00040E94EC10F006500001E36F030E071473
:100C1A00E46F060E94EC10F006500001E56F030E27
:100C2A000714E66F080E94EC10F07F0E061400010C
:100C3A00E16FE26B0A0E94EC10F07F0E06140001CD
:100C4A00DF6FE06B0C0E94EC10F006500001F96FA8
:100C5A00030E0714FA6FF9513E6EFA513F6E406A5D
:100C6A00416A260E3E02F3CF42F0F4CF43F0446AC3
:100C7A00456A3F02F3504326F4504422000E4522AF
:100C8A00020E3E02F3504326F4504422000E45223F
:100C9A00260E4002F3504426F4504522020E3F022B
:100CAA00F3504426F4504522000E3E02F3504426E7
:100CBA00F4504522260E4102F3504526020E400208
:100CCA00F3504526000E3F02F3504526000E3E0221
:100CDA00F350452642C00DF043C00EF044C00FF059
:100CEA0045C010F03AEC0FF00DC01FF00EC020F016
:100CFA000FC021F0D1EC08F01FC02FF020C030F057
:100D0A0021C031F066EC0BF02FC0DDF030C0DEF010
:100D1A000E0E94EC10F006500001DB6F030E071460
:100D2A00DC6F100E3FEC11F07F0B0A0DF3CFD9F0F8
:100D3A00F4CFDAF0110E3FEC11F07F0B0001EB6FEC
:100D4A00120E3FEC11F01F0B0001F06F130E3FEC77
:100D5A0011F01F0B0001EF6F140E3FEC11F07F0B27
:100D6A000001F46F150E3FEC11F07F0B0001F36FD9
:100D7A00160E3FEC11F01F0B0001EC6F170E3FEC43
:100D8A0011F0010B0001F26F180E3FEC11F0010B8C
:100D9A000001EE6F190E3FEC11F0010B0001ED6F2F
:100DAA001200FFFFFFFF0400030E556002D0552A10
:100DBA0002D0FFFF556AFFFF00016A516B1103E081
:100DCA006A07D8A06B076851691103E06807D8A0C1
:100DDA0069079DA8F2A424D1555059E16A516B11B3
:100DEA0056E17651461809E17751471806E17451E0
:100DFA007A1903E175517B1938E07A51126E7B51E9
:100E0A00136E146A156A0A0EFFFFD890123613364B
:100E1A0014361536E82EF8D746501210606F475030
:100E2A001310616F000E1410626F000E1510636FBD
:100E3A004C0E0C6E60C00DF061C00EF062C00FF077
:100E4A0063C010F083EC0DF046C076F047C077F02F
:100E5A007AC074F07BC075F0030E00016B6FE80E68
:100E6A006A6FFFFF59EC11F0DBD04650505C4750D7
:100E7A00515804E250C046F051C047F07A514E5CD6
:100E8A007B514F5804E24EC07AF04FC07BF05504B4
:100E9A004DE1685169114AE17251781909E17351BA
:100EAA00791906E17E51801903E17F51811935E0F4
:100EBA007851126E7951136E146A156A0A0EFFFF81
:100ECA00D8901236133614361536E82EF8D78051D4
:100EDA001210606F81511310616F000E1410626F4F
:100EEA00000E1510636F500E0C6E60C00DF061C0DD
:100EFA000EF062C00FF063C010F083EC0DF078C002
:100F0A0072F079C073F080C07EF081C07FF0030E6A
:100F1A000001696FE80E686FA4D778514C5C79516B
:100F2A004D5804E24CC078F04DC079F0020E5518C5
:100F3A0065E1D8905634126E58C013F0D890133623
:100F4A00D89013368D39E842F80B13101210F111AC
:100F5A008A6F7C514A1809E17D514B1806E18B5181
:100F6A00571803E189518A1949E08AC012F0136AB5
:100F7A00146A156A0A0EFFFFD89012361336143611
:100F8A001536E82EF8D757C016F0176A186A196A84
:100F9A00070EFFFFD8901636173618361936E82E80
:100FAA00F8D74A5016101A6E4B5017101B6E000EC7
:100FBA0018101C6E000E19101D6E12501A10606F58
:100FCA0013501B10616F14501C10626F15501D10C6
:100FDA00636F7C0E0C6E60C00DF061C00EF062C0D3
:100FEA000FF063C010F083EC0DF04AC07CF04BC0E8
:100FFA007DF057C08BF08AC089F033D7030E55189D
:10100A000FE1FB5154180CE0780E0C6E54500D6E23
:10101A000E6A0F6A106A83EC0DF054C0FBF021D7F8
:10102A00FFFF1200FFFFFFFF0FC013F0146A156ADB
:10103A000E34133601E314801350186E12C013F0E5
:10104A00146A156A1134133601E314801350176EAB
:10105A00185009E01750185C0DE21850175C136E0F
:10106A00180E136407D010C00DF011C00EF012C094
:10107A000FF08FD0FFFF175009E01850175C0DE2F0
:10108A001750185C136E180E136407D00DC00DF0BC
:10109A000EC00EF00FC00FF07CD0FFFF060E166ECA
:1010AA000FBE168E12BE168C0E8E0F6A118E126A23
:1010BA001750185C1AE2FFFFD89010361136123614
:1010CA001706185017180DE0160616C013F0070E6B
:1010DA00131607E0F0D7FFFFD8900F320E320D3209
:1010EA00182A175018181CE0F6D71850175C18E27F
:1010FA00FFFFD8900D360E360F36180618501718FF
:10110A000CE0160616C013F0070E131606E0F0D709
:10111A00D890123211321032172A17501818F8E1E3
:10112A0016AE07D00D1E0E1E0F1E0D2A000E0E2221
:10113A000F22FFFF16AC07D0101E111E121E102A16
:10114A00000E11221222FFFF166A0D5010260E50B1
:10115A0011220F50122212AE09D0101E111E121E99
:10116A00102A000E11221222010E166EFFFF10C065
:10117A0005F011C006F012C007F018C008F016C03A
:10118A0009F037EC0DF005C00DF006C00EF007C0EF
:10119A000FF0FFFF1200FFFFFFFF136A146A156AC0
:1011AA001FC016F020C017F021C018F0B5EC0EF0E1
:1011BA0004E31F6A206A216A9AD01FC025F020C062
:1011CA0026F021C027F0C80E226E6E0E236EBE0EC8
:1011DA00246E1F50225C2C6E205023582D6E2150F5
:1011EA0024582E6ED8902E322D322C32D880800E72
:1011FA00265A000E275A040E286EFFFF2CC00DF047
:10120A002DC00EF02EC00FF025C010F026C011F030
:10121A0027C012F091EC0AF00DC029F00EC02AF096
:10122A000FC02BF029C00DF02AC00EF02BC00FF012
:10123A002CC010F02DC011F02EC012F091EC0AF063
:10124A000DC029F00EC02AF00FC02BF029C00DF0F6
:10125A002AC00EF02BC00FF02CC010F02DC011F0D8
:10126A002EC012F091EC0AF00DC029F00EC02AF03F
:10127A000FC02BF02CC00DF02DC00EF02EC00FF0B9
:10128A00106AC00E116E3F0E126E91EC0AF00DC07C
:10129A002CF00EC02DF00FC02EF02CC019F02DC06E
:1012AA001AF02EC01BF029C01CF02AC01DF02BC05A
:1012BA001EF09FEC0FF019C02CF01AC02DF01BC0C5
:1012CA002EF0282E9AD72CC00DF02DC00EF02EC06D
:1012DA000FF01FC010F020C011F021C012F091ECE5
:1012EA000AF00DC01FF00EC020F00FC021F0FFFF62
:1012FA001200FFFFFFFF0950D96EDA6A300EDF6E67
:10130A000950D96EDA6AD92A300EDF6E0950D96EC1
:10131A00DA6A020ED926300EDF6E0950D96EDA6A01
:10132A00030ED926300EDF6E0950D96EDA6A040E22
:10133A00D926300EDF6E0950D96EDA6A050ED92623
:10134A00300EDF6E0DD0FFFFA00E055E860E065A28
:10135A00010E075A000E085A0950D96EDA6ADF2AB6
:10136A00FFFF0850F0E1A00E055C860E0658010E3C
:10137A0007580EE3E8D7FFFF100E055E270E065A40
:10138A00000E075A085A0950D96EDA6AD92ADF2A92
:10139A0008500710F0E1100E055C270E06580FE3FF
:1013AA00EAD7FFFFE80E055E030E065A000E075A3B
:1013BA00085A0950D96EDA6A020ED926DF2A08506D
:1013CA000710EFE1E80E055C030E06580EE3E9D7B5
:1013DA00FFFF640E055E000E065A075A085A0950A6
:1013EA00D96EDA6A030ED926DF2A085007100610CA
:1013FA00EFE1640E055C0DE3EBD70A0E055E000E05
:10140A00065A075A085A0950D96EDA6A040ED926BA
:10141A00DF2A085007100610F0E10A0E055CEDE21B
:10142A000950D96EDA6A050ED9260550DF26120050
:10143A00FFFFFFFF04000001E951505CEA515158D7
:10144A0001E35480E7514E5CE8514F5801E354825E
:10145A00E3514C5CE4514D5801E35484DB514C5C3C
:10146A00DC514D580EE35050DD5D5150DE5909E311
:10147A006C4B6D2BD9516C5DDA516D5904E354886C
:10148A0002D06C6B6D6BFFFFE1514A5CE2514B5825
:10149A0001E3548AE551825DE651835901E3548C94
:1014AA00EB5104E0EB51885D01E3548654502BE084
:1014BA0064EC11F0EE512DE054AA04D0610E656F70
:1014CA00A80E04D0FFFF090E656FC40EFFFF646FFC
:1014DA0084510BE18B8A664B672BC40E665D090E3D
:1014EA00675917E3010E846F0AD08B9A664B672BF4
:1014FA006451665D655167590CE3FFFF846BFFFF1A
:10150A00666B676B06D08D8223EC11F08B9A000113
:10151A00F4D7FFFF1200FFFFFFFF0FC013F0146A9A
:10152A00156A0E34133601E314801350166E1650E2
:10153A0001E10CD012C013F0146A156A1134133683
:10154A0001E314801350176E175005E1FFFF0D6A6F
:10155A000E6A0F6A4BD017507B0F16260FC017F072
:10156A001250171A800E17160E8E118E126A0F6AF3
:10157A000D501002F4CFF3FFF46AF3CF18F0F4CF52
:10158A0019F01A6A0D501102F3501826F450192254
:10159A00000E1A220E501002F3501826F450192287
:1015AA00000E1A220E501102F3501926F4501A2274
:1015BA001AAE05D0D8901A3219321832162AFFFFFD
:1015CA00D8901A321932183218C005F019C006F02C
:1015DA001AC007F016C008F017C009F037EC0DF072
:1015EA0005C00DF006C00EF007C00FF0FFFF120095
:1015FA00FFFFFFFFA1A262D00B0EB36EB268A192E9
:10160A000EEC10F00EEC0EF082516E2783516F2310
:10161A00030E26EC10F005500001702706507123C6
:10162A008C2B8CA94BD070C00AF071C00BF0040E41
:10163A000C6EFFFFD8900B320A320C2EFAD70AC072
:10164A004AF00BC04BF0300E0A6E020E0B6EEC51D4
:10165A000A5E000E0B5A0A504A5C0B504B5816E3AE
:10166A00D00E0A6EFD0E0B6EEC514A240C6E000E63
:10167A004B200D6E0A500C260B500D22D8900D30BF
:10168A000E6E0C304A6E0EC04BF002D04A6A4B6A9C
:10169A00FFFF6EC00AF06FC00BF0040E0C6EFFFF66
:1016AA00D8900B320A320C2EFAD70AC080F00BC03F
:1016BA0081F08C6B706B716B6E6B6F6BFFFF12003E
:1016CA00FFFFFFFF31C033F0346A356A30343336F6
:1016DA0001E3348033503D6E3D5006E1FFFF2F6A2F
:1016EA00306A316A326A50D0170E336E2FC034F026
:1016FA0030C035F031C036F03328376E05D0FFFFE1
:10170A00D890363235323432FFFF372EF8D734507C
:10171A00386E308E316A2F50396E30503A6E3150F1
:10172A003B6E3C6A8E0E3D5E3DAE0DD03D50800A4A
:10173A008F0FD4E3FFFFD8903C323B323A32393232
:10174A003D3EF8D70ED0FFFF170E3D6407D0C6D72F
:10175A00D89039363A363B363C363D06FFFF3D5087
:10176A00F7E1FFFF385008E03C1E3B1E3A1E396C79
:10177A00000E3A223B223C2239C02FF03AC030F008
:10178A003BC031F03CC032F0FFFF1200FFFFFFFF09
:10179A0004000001865157E0900ECF1904E0FFFFC4
:1017AA0055EC10F050D0545008E054BAF8D7120E45
:1017BA00D019F5E1D11D5416F2D7110ED0190BE14B
:1017CA00010E581A58C005F01C0ED8EC0FF05850EC
:1017DA0002E04CEC11F05650E2E1585025E1130EAC
:1017EA000001D0190EE1010EF11BF1C005F01B0E2C
:1017FA00D8EC0FF00001F15104E1CFEC10F081ECCC
:10180A000FF0050E0001D0610FD0F16BD0C057F078
:10181A0081EC0FF057C005F01A0ED8EC0FF0F1C0AA
:10182A0005F01B0ED8EC0FF0FFFF200E0001D019B7
:10183A00B6E145EC03F038EC05F0A00E4CEC0EF0E6
:10184A0015EC11F0ACD7FFFF1200FFFFFFFFF29E6D
:10185A00FC6A070EB46EBD6A800EC26EC90EC16EF6
:10186A003F0E926EC00E936E810E946E956A010EB3
:10187A00966E806A816A826A836A846A896A8A6AD7
:10188A008B6A8C6A8D6A900EAB6E240EAC6E150E46
:10189A00AF6E800ED56E870ECD6EB10EB16E010E93
:1018AA00D16EF18E9D8AF28CF28E38EC05F0CFEC77
:1018BA0010F00001ED510AE0A10E4CEC0EF0000907
:1018CA0001E1FF00030EF3EC0FF003D0010EF3EC7D
:1018DA000FF0FFFFA00E4CEC0EF0000901E1FF0033
:1018EA006AEC10F081EC0FF015EC11F0FFFFE0EC60
:1018FA000CF01EEC0AF0FEEC0AF0D7EC06F0CCEC89
:10190A000BF0F4D7FFFF50D0FFFF040082A04CD0A9
:10191A00486A496A1D6A1E0E1C6EF29E34D0CF6A4E
:10192A009E90CE6AC80EFFFF00F0E82EFCD7CECFFD
:10193A001EF0CFCF1FF01E50485C0D6E1F50495845
:10194A000E6EA8EC10F00DC010F00EC011F00FC012
:10195A0012F0BCEC0FF010C013F011C014F012C05A
:10196A0015F0166AC80E176E420E186EB5EC0EF018
:10197A0001E31D2A1E50485C1F50495804E21EC04C
:10198A0048F01FC049F0FFFF1C061C28C8E1F28E70
:10199A00090E1D6009D0495003E1640E485C04E356
:1019AA0082EC0EF0010E04D0FFFF80A8ADD7000E26
:1019BA00FFFF1200FFFFFFFF010E26EC10F005C02B
:1019CA0050F006C051F0000E26EC10F005C04EF0A3
:1019DA0006C04FF0040E26EC10F005C04CF006C00D
:1019EA004DF0050E26EC10F005C082F006C083F01B
:1019FA00515005E10A0E505C02E2506A516A4F509A
:101A0A0005E10A0E4E5C02E24E6A4F6A4D5005E14C
:101A1A000A0E4C5C02E24C6A4D6A0001835105E1F0
:101A2A000A0E825D02E2826B836B5050465C515013
:101A3A00475804E250C046F051C047F04E507A5D14
:101A4A004F507B5904E24EC07AF04FC07BF04C50A5
:101A5A00785D4D50795904E24CC078F04DC079F068
:101A6A001200FFFFFFFF085004E0055006100710A0
:101A7A000AE1056A066A076A3ED0FFFF082AD8907B
:101A8A000732063205320A6A0B6AFE0E07140C6E1A
:101A9A000A500B100C100BE0F0D7FFFF082A052A9A
:101AAA00000E06220722D8900732063205320A6A49
:101ABA000B6A07500C6E0A500B100C1007E0EDD79A
:101ACA00FFFF0806D89005360636073606BE03D04D
:101ADA00020E0860F5D7FFFF08A0069ED8900832CC
:101AEA0008500712095001E0078E05C005F006C02C
:101AFA0006F007C007F0FFFF1200FFFFFFFF526A60
:101B0A000ED00C505224116E11C0F6FF52508F0F96
:101B1A00D96EDA6A0800FFFFF5CFDFFF522AFFFF0E
:101B2A000C505224116E11C0F6FF0800FFFFF55049
:101B3A00E8E10D2805E10E2803E10F28101016E050
:101B4A0052508F0FD96EDA6A3D0EDF6E522A0DC0DF
:101B5A0005F00EC006F00FC007F010C008F0525092
:101B6A008F0F096E7FEC09F0060E522652508F0F26
:101B7A00D96EDA6ADF68522A52508F0FD96EDA6A42
:101B8A00DF68522A52508F0FD96EDA6ADF68FF0C6B
:101B9A00FFFFFFFF0D6A0E6A0F6A106A09500A10EA
:101BAA000B100C102CE0010E116E07D0FFFFD8901D
:101BBA0009360A360B360C36112AFFFF0CAEF6D759
:101BCA00FFFFD8900D360E360F3610360950055CD9
:101BDA000A5006580B5007580C50085809E3095088
:101BEA00055E0A50065A0B50075A0C50085A0D80C7
:101BFA00D8900C320B320A320932112EE1D70DC0BD
:101C0A0005F00EC006F00FC007F010C008F0120071
:101C1A00FFFFFFFF040054AA11D08B82010E0001BE
:101C2A008D6FF051E15D056E000EE259066E4A5065
:101C3A00055C4B50065828E3549A26D0FFFF000152
:101C4A00DF514A5CE0514B5805E38B82010E8D6FE0
:101C5A008E6F1AD0EF51DF5D056E000EE059066EE9
:101C6A004A50055C4B50065803E38B928D6B8E6B82
:101C7A00F2510AE08E5108E1565004E08B82010EBF
:101C8A008D6F02D08B928D6BFFFF1200FFFFFFFF5B
:101C9A00136E060E126E29D0A00E131808E10D0E4F
:101CAA000C6E0D680E680F68106A83EC0DF0A10EB9
:101CBA00131808E1170E0C6E0D680E680F68106A8B
:101CCA0083EC0DF0A20E131808E1010E0C6E0D68DC
:101CDA000E680F68106A83EC0DF031EC11F010EC0D
:101CEA000FF0131802E1010E05D0FFFF12061228A9
:101CFA00D3E1000EFFFF1200FFFFFFFF495006E18C
:101D0A00C80E485C03E2576A81EF0FF0495003E1BD
:101D1A00C80E485C07E3900E485C010E495802E27F
:101D2A00010E19D0900E485C010E495807E34C0E7B
:101D3A00485C040E495802E2020E0DD04C0E485C73
:101D4A00040E495807E36C0E485C070E495802E234
:101D5A00030E01D0040EFFFF576E81EF0FF0FFFF55
:101D6A00FFFF15AE0DD0196A1A6A800E1B6E13504A
:101D7A00195C136E14501A58146E15501B58156EB0
:101D8A00FFFF18AE0DD0196A1A6A800E1B6E165024
:101D9A00195C166E17501A58176E18501B58186E81
:101DAA00FFFF800E151A181A1650135C1750145894
:101DBA001850155802E2D89001D0D880FFFF1200BF
:101DCA00FFFFFFFF096A0A6A075008101EE0010EAA
:101DDA000B6E05D0FFFFD890073608360B2AFFFF97
:101DEA0008AEF8D7FFFFD89009360A360750055CC7
:101DFA000850065805E30750055E0850065A098040
:101E0A00D890083207320B2EEDD709C005F00AC068
:101E1A0006F01200FFFFFFFF056A55EC10F0D66AC4
:101E2A00D76A850ED56EF29417D0FFFF0400000121
:101E3A00865112E0550ED0190CE1770ED11909E13D
:101E4A009F0ECF6506D0A30ECF6103D0CFC005F099
:101E5A0006D0FFFF55EC10F0FFFFF2A4E6D7FFFF14
:101E6A00800ED56E05501200FFFFFFFF8E0E156E15
:101E7A0006D0D89010320F320E320D32152AFFFFDB
:101E8A00116A126A136A1050146E1150121013104C
:101E9A001410EFE10DC005F00EC006F00FC007F0F8
:101EAA0015C008F0000E096E37EC0DF005C00DF0F4
:101EBA0006C00EF007C00FF01200FFFFFE0EF66E0E
:101ECA00220EF76E000EF86E0900F5CFFBF000EE59
:101EDA0060F0790EEE6AE806FDE100EE46F0110EBA
:101EEA00EE6AE806FDE159905992000EF86E060E68
:101EFA00F76E00012BEF0CF0FFFF570402E18C8014
:101F0A0001D08C90FFFF020E571802E18C8201D09B
:101F1A008C92FFFF030E571802E18C8401D08C9437
:101F2A00FFFF040E571802E18C8601D08C96FFFF42
:101F3A001200FFFFFFFF1C501D101E1002E0800E52
:101F4A001E1A19C00DF01AC00EF01BC00FF01CC0EB
:101F5A0010F01DC011F01EC012F018EC08F00DC0F0
:101F6A0019F00EC01AF00FC01BF01200FFFFFFFF9E
:101F7A0012AE0FD010C005F011C006F012C007F063
:101F8A0006EC11F005C010F006C011F007C012F0FF
:101F9A0007D0FFFF10C010F011C011F012C012F0EC
:101FAA00FFFF1200FFFFFFFF066E06C0A9FF05C074
:101FBA00A8FFA69EA684F2CF07F0F26A550EA76E76
:101FCA00AA0EA76EA68202D0FFFF0400FFFFA6B2E8
:101FDA00FBD7A69407C0F2FF1200FFFFFFFF076EB0
:101FEA000A0E0702F350076E0ED00400040E066EA6
:101FFA00CF0E056EA50EFFFFE82EFDD7052EFBD7E7
:10200A00062EF9D700D0FFFF07060728EEE11200D7
:10201A00FFFFFFFFEB5112E0565005E0080E465C49
:10202A00020E475803E2886B856B08D0852B140E85
:10203A00856101D003D0FFFF856B882BFFFF12005B
:10204A00FFFFFFFF096E0938E842F80B8109C26EEB
:10205A00110EFFFFE82EFDD700D0C284FFFFC2B4E5
:10206A00FDD7C450076EC350056E07C006F01200B4
:10207A00FFFFFFFF560412E0010E566E8A868B8818
:10208A00F15107E0F451E2EC10F087EC0CF0000992
:10209A0005E00001F351E2EC10F08D841200FFFF1D
:1020AA00FFFF74EC11F0536A07D0FFFF5350CF0FB4
:1020BA00D96EDA6ADF6A532AFFFF080E5364F5D72E
:1020CA000001866B536A1200FFFFFFFF030E126EB8
:1020DA000BD0210E0C6E510E0D6E0E6A0F6A106A2D
:1020EA0083EC0DF031EC11F0FFFF12061228F1E13A
:1020FA001200FFFFFFFF79EC11F0536A07D0FFFFD0
:10210A005350CF0FD96EDA6ADF6A532AFFFF080EDF
:10211A005364F5D70001866B536A1200FFFFFFFF75
:10212A000D6E0D503FEC11F0086E0D283FEC11F0CA
:10213A00096E08500B6E09C00CF00BC006F00CC0FB
:10214A0007F01200FFFFFFFF0DC005F00EC006F0FA
:10215A00076A8E0E086E000E096E37EC0DF005C088
:10216A000DF006C00EF007C00FF01200FFFFFFFFD0
:10217A000A50D96EDA6ADF50056E0850D8EC0FF0B3
:10218A000A50D96EDA6AD92ADF50056E0828D8EFC4
:10219A000FF0FFFFFFFF1A0E3FEC11F00F0B576E07
:1021AA001B0E3FEC11F0010B0001F16F1C0E3FEC0E
:1021BA0011F0010B586E1200FFFFFFFF066E0AD0E6
:1021CA0004000A0E056EBE0EFFFFE82EFDD7052E8F
:1021DA00FBD700D0FFFF06060628F2E11200FFFF38
:1021EA00FFFFABA202D0AB98AB88FFFFABA406D02F
:1021FA00AECFAEFFAECFAEFFAECFAEFFFFFF120047
:10220A00FFFFFFFF05500610071002E0800E071AB5
:10221A0005C005F006C006F007C007F01200FFFF70
:10222A00FFFF0001EE5108E08B8A640EE2EC10F029
:10223A008B9A640EE2EC10F01200FFFFFFFF585079
:10224A0008E180B803D03EEC10F003D0FFFF4CEC5D
:10225A0011F0FFFF1200FFFFFFFF0001876B9D884F
:10226A0002D0FFFF0400FFFF9DB8FBD7050EE2EF87
:10227A0010F0FFFFFFFF056EA66A05C0A9FFA68042
:10228A0000F000F000F000F0A8501200FFFFFFFF7E
:10229A00565008E0566A8D948B980001F451E2EC8E
:1022AA0010F08A961200FFFFFFFF280ED76E000E6D
:1022BA00D66AF2940001876B9D881200FFFFFFFF28
:1022CA008D948D928B988A96566A1200FFFFFFFFB3
:1022DA00CC6A7F0ECA6E9E929D827F0CFFFFFFFF23
:1022EA00CA6A9D921200FFFFFFFFCA6A9D921200FE
:0522FA00FFFFFFFFFFE4
:020000040020DA
:08000000FFFFFFFFFFFFFFFF00
:020000040030CA
:04000000FF260A0FBE
:0800060081FF0FC00FE00F4065
:0200000400F00A
:10000000A406FA00C201F40141002D00C8006400FA
:1000100032000A05050A0A00010100010000000083
:00000001FF
