:040000008BEF00F092
:100008005382D9CF07F0DACF08F0F3CF09F0F4CF55
:100018000AF09EBA9DAA56D04DEC16F0AECF0BF062
:100028004E50D8B469EC16F04E50010DD30EF3249F
:10003800D96E000EF420DA6E0BC0DFFF010E4E649D
:100048003BD04E50010DD30EF324D96E000EF42090
:10005800DA6EEE0EDE18D8A42FD0FF0E026EFF0E59
:10006800036E4E50046E056A0250042603500522A2
:10007800D30E0424D96E000E0520DA6EEE0EDE18BB
:10008800D8A41AD0FE0E026EFF0E036E4E50046EF8
:10009800056A0250042603500522D30E0424D96EA3
:1000A800000E0520DA6EEE0EDE18D8A405D074EC2A
:1000B80016F0010E00018A6F4E2A090E4E6402D016
:1000C8001BEC15F09DB29EA203D09E921BEC15F07E
:1000D8009EB89DA812D000018B514D5CD8A00CD0C1
:1000E8008B51010D930EF324D96E000EF420DA6EB5
:1000F800DF50AD6E8B2B01D09D980AC0F4FF09C06C
:10010800F3FF08C0DAFF07C0D9FF53921100ACEF24
:0201180014F0E1
:100F0000007061676520736574757031007061678A
:100F100065206D61696E0070616765206C6F676F39
:100F20000076657273696F6E006D726566006D7430
:100F30006668006D747068006D766F6C006D637527
:100F400072006D707474006D667277006672560080
:100F5000637656006D6C63006D6264006D726400B0
:100F60006D6865006D7466006D6C67006D62700081
:100F70006D6C70006D747000657272007462730045
:090F80006D7473006D72740000C1
:100F8A0062EC16F0EDC00CF0EEC00DF00E6A0F6ABE
:100F9A00EDC010F0EEC011F0126A136A0EEC14F0F4
:100FAA000CC018F00DC019F00EC01AF00FC01BF0DB
:100FBA00260E1C6E020E1D6E000E1E6E000E1F6E99
:100FCA0068EC13F0010E1824256E000E1920266E07
:100FDA00EBC00CF0ECC00DF00E6A0F6AEBC010F01B
:100FEA00ECC011F0126A136A0EEC14F00CC018F07F
:100FFA000DC019F00EC01AF00FC01BF0260E1C6EA1
:10100A00020E1D6E000E1E6E000E1F6E68EC13F0AF
:10101A00010E1824276E000E1920286EE1C00CF06C
:10102A00E2C00DF00E6A0F6AE1C010F0E2C011F0E2
:10103A00126A136A0EEC14F00CC018F00DC019F005
:10104A000EC01AF00FC01BF0260E1C6E020E1D6E8B
:10105A00000E1E6E000E1F6E68EC13F0010E1824AF
:10106A00296E000E19202A6E470E136E0F0E146E8B
:10107A0025C015F026C016F0176A186A2CEC10F075
:10108A0041EC16F0290E136E0F0E146E27C015F0E0
:10109A0028C016F0176A186A2CEC10F041EC16F00A
:1010AA003D0E136E0F0E146EE7C015F0E8C016F071
:1010BA00176A186A2CEC10F041EC16F0380E136E11
:1010CA000F0E146EE9C015F0EAC016F0176A186A16
:1010DA002CEC10F041EC16F0700E136E0F0E146E1D
:1010EA0029C015F02AC016F0176A186A2CEC10F0FD
:1010FA0041EC16F0540E136E0F0E146EDFC015F08D
:10110A00E0C016F0176A186A2CEC10F041EC16F0E1
:10111A00840E136E0F0E146EDDC00CF0DEC00DF0DF
:10112A00000E0F6E0A0E0E6E63EC14F00CC015F072
:10113A000DC016F0176A186A2CEC10F041EC16F084
:10114A00600E136E0F0E146E0001EF51156E166AC3
:10115A00176A186A2CEC10F041EC16F0740E136E34
:10116A000F0E146EE5C015F0E6C016F0176A186A7D
:10117A002CEC10F041EC16F0640E136E0F0E146E88
:10118A00E3C015F0E4C016F0176A186A2CEC10F0E8
:10119A0041EC16F0330E136E0F0E146E0001F4516B
:1011AA00156E166A176A186A2CEC10F041EC16F0E4
:1011BA002E0E136E0F0E146E0001F351156E166A81
:1011CA00176A186A2CEC10F041EC16F05C0E136EDC
:1011DA000F0E146E0001F851156E166A176A186A16
:1011EA002CEC10F041EC16F0580E136E0F0E146E24
:1011FA000001F751156E166A176A186A2CEC10F07E
:10120A0041EC16F0420E136E0F0E146E0001F651E9
:10121A00156E166A176A186A2CEC10F041EC16F073
:10122A006C0E136E0F0E146E0001F251156E166AD3
:10123A00176A186A2CEC10F041EC16F0800E136E47
:10124A000F0E146E0001F051156E166A176A186AAD
:10125A002CEC10F041EC16F0680E136E0F0E146EA3
:10126A000001F151156E166A176A186A2CEC10F013
:10127A0041EC16F0A20ED7EC12F00009D8B4120015
:10128A0001EC15F0040000018A51D8B4FBD7AF0E67
:10129A00D3651CD0EE0ED36119D0D351500F2B6EEB
:1012AA00D405D8A405D0D5C00CF02B5067EC15F0A6
:1012BA00020E0001D419D8A409D02BC00FF0106A6D
:1012CA00D50E116E000E126EAEEC15F0F00E000186
:1012DA00D319D8A404D0F00ED419D8B4120001EC52
:1012EA0015F0D0D70400030E506002D0502A02D065
:1012FA00000E506E00016C516D11D8B403D06C070A
:10130A00D8A06D076A516B11D8B403D06A07D8A068
:10131A006B079DB81200F2A412005050D8A45FD0F7
:10132A006C516D11D8A45BD078517E190BE17951BB
:10133A007F19D8A407D076517C1904E177517D1919
:10134A00D8B438D07C511B6E7D511C6E1D6A1E6A42
:10135A000A0ED8901B361C361D361E36E82EF9D7D3
:10136A007E511B10606F7F511C10616F000E1D10A3
:10137A00626F000E1E10636F4C0E136E0F0E146E0A
:10138A0060C015F061C016F062C017F063C018F0B3
:10139A002CEC10F07EC078F07FC079F07CC076F03B
:1013AA007DC077F0030E00016D6FE80E6C6F58EC8C
:1013BA0016F0120000017E514B5C7F514C58D8B098
:1013CA0004D04BC07EF04CC07FF07C51495C7D510B
:1013DA004A58D8B004D049C07CF04AC07DF05004C5
:1013EA00D8A456D000016A516B11D8A451D07451B7
:1013FA007A190BE175517B19D8A407D08251841947
:10140A0004E183518519D8B438D07A511B6E7B51C7
:10141A001C6E1D6A1E6A0A0ED8901B361C361D36B3
:10142A001E36E82EF9D784511B10606F85511C10A7
:10143A00616F000E1D10626F000E1E10636F500E5A
:10144A00136E0F0E146E60C015F061C016F062C004
:10145A0017F063C018F02CEC10F07AC074F07BC05F
:10146A0075F084C082F085C083F0030E00016B6FB3
:10147A00E80E6A6F58EC16F0120000017A51475CC8
:10148A007B514858D8B004D047C07AF048C07BF0A6
:10149A00020E5018D8A46BD0D89051341B6EF9C0E4
:1014AA001CF0D8901C36D8901C3600019139E842BD
:1014BA00F80B1C101B10F5118E6F805145180CE1AA
:1014CA0081514618D8A408D08F515218D8A404D0F4
:1014DA008D518E19D8B44BD08EC01BF01C6A1D6A70
:1014EA001E6A0A0ED8901B361C361D361E36E82E8A
:1014FA00F9D752C01FF0206A216A226A070ED890D3
:10150A001F36203621362236E82EF9D745501F10CD
:10151A00236E46502010246E000E2110256E000EF8
:10152A002210266E1B502310606F1C502410616F0E
:10153A001D502510626F1E502610636F7C0E136EAD
:10154A000F0E146E60C015F061C016F062C017F07D
:10155A0063C018F02CEC10F045C080F046C081F052
:10156A0052C08FF08EC08DF058EC16F01200030EA8
:10157A005018D8A412000001FA514F18D8B412001A
:10158A00780E136E0F0E146E4F50156E166A176A88
:10159A00186A2CEC10F04FC0FAF058EC16F0120052
:1015AA00000ED7EC15F0FF0E0D140101066F070EA1
:1015BA000E14076F06C10CF007C10DF00E6A0F6A10
:1015CA00260E106E020E116E000E126E000E136EB3
:1015DA000EEC14F00CC018F00DC019F00EC01AF081
:1015EA000FC01BF0E0EC13F018C026F019C027F06A
:1015FA001AC028F0C4EC0CF026C039F027C03AF023
:10160A0028C03BF0BBEC0EF039C0EDF03AC0EEF06A
:10161A00020ED7EC15F0FF0E0D140101086F010E32
:10162A000E14096F08C10CF009C10DF00E6A0F6A99
:10163A00260E106E020E116E000E126E000E136E42
:10164A000EEC14F00CC018F00DC019F00EC01AF010
:10165A000FC01BF0E0EC13F018C026F019C027F0F9
:10166A001AC028F0C4EC0CF026C039F027C03AF0B2
:10167A0028C03BF0BBEC0EF039C0EBF03AC0ECF0FE
:10168A00040ED7EC15F0FF0E0D140001E76F030EE0
:10169A000E14E86F060ED7EC15F0FF0E0D140001BC
:1016AA00E96F030E0E14EA6F080ED7EC15F07F0EE1
:1016BA000D140001E56FE66B0A0ED7EC15F07F0EEC
:1016CA000D140001E36FE46B0C0ED7EC15F0FF0E5E
:1016DA000D1401010A6F030E0E140B6F0AC10CF0F0
:1016EA000BC10DF00E6A0F6A260E106E020E116EF5
:1016FA00000E126E000E136E0EEC14F00CC018F0F1
:10170A000DC019F00EC01AF00FC01BF0E0EC13F078
:10171A0018C026F019C027F01AC028F0C4EC0CF043
:10172A0026C039F027C03AF028C03BF0BBEC0EF0D7
:10173A0039C0E1F03AC0E2F00E0ED7EC15F0FF0E18
:10174A000D140001DF6F030E0E14E06F100E35EC5E
:10175A0016F0426E7F0E421642500A0DF3CFDDF0AC
:10176A00F4CFDEF0110E35EC16F07F0B0001EF6FAF
:10177A00120E35EC16F01F0B0001F46F130E35EC48
:10178A0016F01F0B0001F36F140E35EC16F07F0BE9
:10179A000001F86F150E35EC16F07F0B0001F76F9C
:1017AA00160E35EC16F01F0B0001F06F170E35EC14
:1017BA0016F0010B0001F66F180E35EC16F0010B4E
:1017CA000001F26F190E35EC16F0010B0001F16FF2
:1017DA00120016C01AF01B6A1C6A15341A3601E385
:1017EA001B801A501F6E19C01AF01B6A1C6A183423
:1017FA001A3601E31B801A501E6E1F50D8B40BD044
:10180A001E501F5CD8B00ED01F5000081E241A6E3E
:10181A00180E1A6407D017C014F018C015F019C0B2
:10182A0016F012001E50D8B40BD01F501E5CD8B050
:10183A000ED01E5000081F241A6E180E1A6407D004
:10184A0014C014F015C015F016C016F01200060EDA
:10185A001D6E16BE1D8E19BE1D8C158EFF0E14161A
:10186A00FF0E1516000E1616188EFF0E1716FF0E0F
:10187A001816000E19161E501F5CD8B01BD0D8902F
:10188A001736183619361E061F501E18D8B40DD032
:10189A001D061DC01AF0070E1A16D8B406D0EFD7C7
:1018AA00D8901632153214321F2A1E501F18D8B477
:1018BA001FD0F6D71F501E5CD8B01AD0D890143655
:1018CA00153616361F061F501E18D8B40DD01D0621
:1018DA001DC01AF0070E1A16D8B406D0EFD7D89042
:1018EA001932183217321E2A1E501F18D8A4F7D7D9
:1018FA001DAE0CD0FF0E141AFF0E151AFF0E161A83
:10190A00010E1426000E1522000E16221DAC0CD054
:10191A00FF0E171AFF0E181AFF0E191A010E1726B4
:10192A00000E1822000E1922000E1D6E14501726E2
:10193A00155018221650192219AE0ED0FF0E171A7A
:10194A00FF0E181AFF0E191A010E1726000E18227A
:10195A00000E1922010E1D6E17C00CF018C00DF0F2
:10196A0019C00EF01FC00FF01DC010F032EC12F0BB
:10197A000CC014F00DC015F00EC016F01200000EC7
:10198A000C6E000E0D6E000E0E6E26C00FF027C0F4
:10199A0010F028C011F020EC13F0D8A00ED028AE19
:1019AA0005D0000E0001656F210E646F000E266ED1
:1019BA00000E276E000E286E120026C02FF027C0D8
:1019CA0030F028C031F026C029F027C02AF028C0FC
:1019DA002BF0291E2A1E2B1E292A000E2A222B2210
:1019EA00C80E2924366E6E0E2A20376EBE0E2B20A4
:1019FA00386ED890383237323632000E2F5E800E6B
:101A0A00305A000E315A040E326E36C02CF037C0EE
:101A1A002DF038C02EF036C014F037C015F038C09B
:101A2A0016F02FC017F030C018F031C019F0B2EC20
:101A3A000FF014C033F015C034F016C035F033C0BF
:101A4A0014F034C015F035C016F036C017F037C0A0
:101A5A0018F038C019F0B2EC0FF014C033F015C00A
:101A6A0034F016C035F033C014F034C015F035C068
:101A7A0016F036C017F037C018F038C019F0B2ECBB
:101A8A000FF014C033F015C034F016C035F036C06C
:101A9A0014F037C015F038C016F0000E176EC00EDD
:101AAA00186E3F0E196EB2EC0FF014C036F015C066
:101ABA0037F016C038F036C020F037C021F038C0F1
:101ACA0022F033C023F034C024F035C025F08CEC6A
:101ADA0014F020C036F021C037F022C038F0322E80
:101AEA0094D736C014F037C015F038C016F026C0A7
:101AFA0017F027C018F028C019F0B2EC0FF014C084
:101B0A0026F015C027F016C028F0120010C0D9FF21
:101B1A0011C0DAFF300EDF6E20EE01F01050D92628
:101B2A001150DA22300EDF6E20EE02F01050D92664
:101B3A001150DA22300EDF6E20EE03F01050D92653
:101B4A001150DA22300EDF6E20EE04F01050D92642
:101B5A001150DA22300EDF6E20EE05F01050D92631
:101B6A001150DA22300EDF6E0DD0A00E0C5E860EFA
:101B7A000D5A010E0E5A000E0F5A10C0D9FF11C08D
:101B8A00DAFFDF2A0F50F1E1A00E0C5C860E0D5829
:101B9A00010E0E58D8A010D0E8D7100E0C5E270EF2
:101BAA000D5A000E0E5A000E0F5A20EE01F0105078
:101BBA00D9261150DA22DF2A0F500E10EEE1100E4C
:101BCA000C5C270E0D58D8A010D0E7D7E80E0C5E93
:101BDA00030E0D5A000E0E5A000E0F5A20EE02F096
:101BEA001050D9261150DA22DF2A0F500E10EEE1DA
:101BFA00E80E0C5C030E0D58D8A00ED0E7D7640E81
:101C0A000C5E000E0D5A0E5A0F5A20EE03F01050B9
:101C1A00D9261150DA22DF2A0F500E100D10EFE1EB
:101C2A00640E0C5CD8A00ED0EAD70A0E0C5E000E29
:101C3A000D5A0E5A0F5A20EE04F01050D9261150A0
:101C4A00DA22DF2A0F500E100D10EFE10A0E0C5C9B
:101C5A00D8B0EBD720EE05F01050D9261150DA2271
:101C6A000C50DF26120004000001ED514B5CEE51CE
:101C7A004C58D8B04F80EB51495CEC514A58D8B017
:101C8A004F82E751475CE8514858D8B04F84DF513A
:101C9A00475CE0514858D8A010D04B50E15D4C50F9
:101CAA00E259D8A00AD06E4B6F2BDD516E5DDE5122
:101CBA006F59D8A006D04F8804D0000E6F6F000E5F
:101CCA006E6FE551455CE6514658D8B04F8AE951E6
:101CDA00865DEA518759D8B04F8CEF51D8B404D0F9
:101CEA00EF518C5DD8B04F864F50D8B433D062ECE8
:101CFA0016F00001F251D8B412004FAA04D0610EB6
:101D0A00676FA80E03D0090E676FC40E666F8851FD
:101D1A00D8A410D08B8A684B692BC40E685D090E53
:101D2A006959D8A01200010E886F000E696F000E63
:101D3A00686F12008B9A684B692B6651685D675110
:101D4A006959D8A01200000E886F000E696F000E44
:101D5A00686F12008D82FBEC15F08B9A000E000161
:101D6A00886F000E696F000E686F12003BC03DF06D
:101D7A003E6A3F6A3A343D3601E33E803D500101F6
:101D8A00056F0551D8A409D0000E396E000E3A6EBF
:101D9A00000E3B6E000E3C6E1200170E3D6E39C0EF
:101DAA003EF03AC03FF03BC040F03D28416E04D0BF
:101DBA00D89040323F323E32412EFAD73E5001018E
:101DCA00006F3A8EFF0E3916FF0E3A16000E3B16BA
:101DDA003950016F3A50026F3B50036F046B8E0EFD
:101DEA00055F05AF16D00551800A8F0FD8B009D00C
:101DFA00000E396E000E3A6E000E3B6E000E3C6EFF
:101E0A001200D8900433033302330133053FF9D764
:101E1A0015D0170E05650FD0000E396E000E3A6EFA
:101E2A00000E3B6E000E3C6E1200D890013702374E
:101E3A000337043705070551D8A4F7D70051D8B49A
:101E4A0008D0041F031F021F016D000E0223032383
:101E5A00042301C139F002C13AF003C13BF004C1C5
:101E6A003CF01200A1A212000B0EB36EB268A1924E
:101E7A00E6EC14F089EC12F00001865170278751C4
:101E8A007123030E4EEC15F00C50000172270D5011
:101E9A007323902B90A9120072C011F073C012F034
:101EAA00040E136ED89012321132132EFBD711C0C2
:101EBA0045F012C046F0300E116E020E126EF0514D
:101ECA00136E146A131E141E134A142A1150132671
:101EDA00125014221350455C14504658D8A01FD0F3
:101EEA00300E116E020E126EF051136E146A131E2A
:101EFA00141E134A142A1150132612501422131EA8
:101F0A00141E134A142A4550132646501422D890F8
:101F1A001430156E1330456E15C046F004D0000E0D
:101F2A00466E000E456E70C011F071C012F0040EBC
:101F3A00136ED89012321132132EFBD711C084F0CF
:101F4A0012C085F0000E906F000E736F000E726F54
:101F5A00000E716F000E706F120016C01AF01B6A25
:101F6A001C6A15341A3601E31B801A501D6E1D5067
:101F7A00D8A407D0000E146E000E156E000E166E51
:101F8A00120019C01AF01B6A1C6A18341A3601E3C7
:101F9A001B801A50226E2250D8A407D0000E146E4D
:101FAA00000E156E000E166E120022507B0F1D26B3
:101FBA0016C022F01950221A800E2216158E188E7B
:101FCA00FF0E1716FF0E1816000E1916000E1E6EBB
:101FDA00000E1F6E000E206E070E216E14A006D092
:101FEA0017501E2618501F2219502022D890163238
:101FFA0015321432D890173618361936212EEED7E4
:10200A00090E216E14A006D017501E2618501F2242
:10201A0019502022D890163215321432D890203214
:10202A001F321E32212EEED71EC00CF01FC00DF03B
:10203A0020C00EF01DC00FF022C010F032EC12F0DA
:10204A000CC014F00DC015F00EC016F01200000EF0
:10205A004D6E1AD04D50010D13C019F014C01AF06C
:10206A00F3501926F4501A2219C0F6FF1AC0F7FFC6
:10207A004D50010D930EF324D96E000EF420DA6E42
:10208A000800F5CFDFFF4D2A4D50010D13C019F09E
:10209A0014C01AF0F3501926F4501A2219C0F6FF88
:1020AA001AC0F7FF0800F5500009D8A4D3D715289D
:1020BA0006E1162804E117281810D8B41FD04D508D
:1020CA00010D930EF324D96E000EF420DA6E3D0E44
:1020DA00DF6E4D2A15C00CF016C00DF017C00EF0B9
:1020EA0018C00FF04D50010D930EF324106E000E20
:1020FA00F420116E8BEC0DF0060E4D264D50010D9D
:10210A00930EF324D96E000EF420DA6EFF0EDF6E02
:10211A004D2A4D50010D930EF324D96E000EF42072
:10212A00DA6EFF0EDF6E4D2A4D50010D930EF32429
:10213A00D96E000EF420DA6EFF0EDF6E1200040074
:10214A0000018A51D8B41200900ED319D8B403D022
:10215A0001EC15F012004F50D8B40BD04FBA56D03C
:10216A00120E0001D419D8A451D0D551FF0A4F1626
:10217A004DD0110E0001D419D8A40CD0010EF91BB0
:10218A00F9C00CF01C0E67EC15F00001F951D8A447
:10219A0028EC16F05150D8A439D00001F951D8A42E
:1021AA0027D0130ED419D8A40FD0010EF51BF5C0F1
:1021BA000CF01B0E67EC15F00001F551D8A404D001
:1021CA00E9EC15F0CAEC14F0050E0001D46110D048
:1021DA00000EF56FD4C052F0CAEC14F052C00CF0E5
:1021EA001A0E67EC15F0F5C00CF01B0E67EC15F033
:1021FA00200E0001D419D8A409D0C5EC07F0D5ECFB
:10220A000AF0A00ED7EC12F01BEC16F001EC15F058
:10221A001200F29E000EFC6E000E0F015F6F000EA0
:10222A005E6F000EBB6EE40E5D6FFE0E5C6F080EF5
:10223A00C16E960EC06E3F0E926EC00E936E810EE8
:10224A00946E000E956E010E966E000E896E000E4B
:10225A008A6E000E8B6E000E8C6E000E8D6E900EC6
:10226A00AB6E240EAC6EA796150EAF6E800ED56EB1
:10227A00870ECD6EB10EB16E010ED16EF18E9E9AA1
:10228A009D8AF28CF28ED5EC0AF0E9EC15F0000189
:10229A00F151D8B40AD0A10ED7EC12F00009D8B483
:1022AA00FF00030E97EC15F003D0010E97EC15F022
:1022BA00A00ED7EC12F00009D8B4FF007FEC15F09D
:1022CA00CAEC14F01BEC16F074EC11F038EC0EF0BA
:1022DA0037EC0FF077EC09F0A4EC10F0F5D7010E0B
:1022EA004EEC15F00CC04BF00DC04CF0000E4EEC4D
:1022FA0015F00CC049F00DC04AF0040E4EEC15F072
:10230A000CC047F00DC048F0050E4EEC15F00CC09D
:10231A0086F00DC087F04C5008E10A0E4B5CD8B02D
:10232A0004D0000E4C6E000E4B6E4A5008E10A0EA5
:10233A00495CD8B004D0000E4A6E000E496E48506F
:10234A0008E10A0E475CD8B004D0000E486E000EB1
:10235A00476E0001875108E10A0E865DD8B004D0A5
:10236A00000E876F000E866F4B507E5D4C507F5972
:10237A00D8B004D04BC07EF04CC07FF049507C5D91
:10238A004A507D59D8B004D049C07CF04AC07DF08B
:10239A0047507A5D48507B59D8B0120047C07AF04E
:1023AA0048C07BF0120050D0040082A04DD0000E2D
:1023BA00446E000E436E000E136E1E0E126EF29ED7
:1023CA0031D09E90000ECF6E000ECE6EC80E00D099
:1023DA00E82EFDD7CF50106ECE50146E10C015F0F7
:1023EA0014C010F015C011F0101E111E104A112A47
:1023FA00435010240C6E445011200D6EC3EC15F09E
:10240A000DBE06D00D5003E1640E0C5CD8B0132A41
:10241A001450435C15504458D8B004D014C043F04B
:10242A0015C044F012061228D8A4CBD7F28E090E92
:10243A0013600AD0445004E1640E435CD8A004D06F
:10244A00A9EC13F0010E120080CF10F0103A0F0E13
:10245A00101610A0A9D7000E12000F50D8B405D03C
:10246A000C500D100E10D8A40CD0000E0C6E000EDD
:10247A000D6E000E0E6E12000F2AD8900E320D321B
:10248A000C32000E0C14116E000E0D14126EFE0E9C
:10249A000E14136E115012101310D8B40CD0ECD7BE
:1024AA000F2A010E0C26000E0D22000E0E22D890C5
:1024BA000E320D320C32000E0C14116E000E0D1479
:1024CA00126EFF0E0E14136E115012101310D8B4A0
:1024DA0006D0E6D70F06D8900C360D360E360DBE4E
:1024EA0003D0020E0F60F6D70FA00D9ED8900F32C0
:1024FA000F500E121050D8A40E8E0CC00CF00DC046
:10250A000DF00EC00EF0120004004FAA17D08B82F5
:10251A00010E0001916FF4510C6E0D6A0C1E0D1E16
:10252A000C4A0D2AE5510C26E6510D2245500C5C49
:10253A0046500D58D8A012004F9A12000001E351DC
:10254A00455CE4514658D8A006D08B82010E916FA3
:10255A00010E926F1200F3510C6E0D6A0C1E0D1EC5
:10256A000C4A0D2AE3510C26E4510D2245500C5C0D
:10257A0046500D58D8A005D08B92000E916F000ED0
:10258A00926FF651D8B412009251D8A41200515049
:10259A00D8B404D08B82010E916F12008B92000E78
:1025AA00916F12001C6E060E1B6E3FD0A00E1C18F7
:1025BA00D8A40ED00D0E136E0F0E146EFF0E156EEC
:1025CA00FF0E166EFF0E176E000E186E2CEC10F032
:1025DA00A10E1C18D8A40ED0170E136E0F0E146E6F
:1025EA00FF0E156EFF0E166EFF0E176E000E186E9A
:1025FA002CEC10F0A20E1C18D8A40ED0010E136EEB
:10260A000F0E146EFF0E156EFF0E166EFF0E176E6E
:10261A00000E186E2CEC10F041EC16F039EC14F0A8
:10262A001C18D8A402D0010E12001B061B28D8A41D
:10263A00BDD7000E12000EAE16D00CC012F00DC09F
:10264A0013F00EC014F0121E131E141E122A000ECE
:10265A0013221422000E12240C6E000E13200D6E8B
:10266A00800E14200E6E11AE16D00FC012F010C0DC
:10267A0013F011C014F0121E131E141E122A000E9B
:10268A0013221422000E12240F6E000E1320106E55
:10269A00800E1420116E000E0C1A000E0D1A800EF8
:1026AA000E1A000E0F1A000E101A800E111A0F5071
:1026BA000C5C10500D5811500E58D8B002D0D8905A
:1026CA001200D8801200000E206E000E216E000E3D
:1026DA00226E000E236E1C501D101E101F10D8B43F
:1026EA002AD0010E246E06D0D8901C361D361E360E
:1026FA001F36242A1FAEF8D7D89020362136223624
:10270A0023361C50185C1D5019581E501A581F5059
:10271A001B58D8A009D01C50185E1D50195A1E50BB
:10272A001A5A1F501B5A2080D8901F321E321D324F
:10273A001C32242EE1D720C018F021C019F022C083
:10274A001AF023C01BF01200445006E1C80E435C85
:10275A00D8B002D0000E2BD0445004E1C80E435C1E
:10276A00D8A008D0900E435C010E4458D8B002D0CD
:10277A00010E1DD0900E435C010E4458D8A008D01B
:10278A004C0E435C040E4458D8B002D0020E0FD04F
:10279A004C0E435C040E4458D8A008D06C0E435C1F
:1027AA00070E4458D8B002D0030E01D0040E526E60
:1027BA00CAEC14F012008E0E206E06D0D8901B328E
:1027CA001A3219321832202A000E18141C6E000E02
:1027DA0019141D6E000E1A141E6EFF0E1B141F6EA6
:1027EA001C501D101E101F10D8A4E8D718C00CF0DA
:1027FA0019C00DF01AC00EF020C00FF0000E106EB6
:10280A0032EC12F00CC018F00DC019F00EC01AF01C
:10281A001200000E146E000E156E000E166E000EDB
:10282A00176E0CA008D01050142611501522125001
:10283A00162213501722D890103611361236133634
:10284A00D8900F320E320D320C320C500D100E1081
:10285A000F10D8A4E6D714C00CF015C00DF016C09E
:10286A000EF017C00FF01200000E0C6E01EC15F0FE
:10287A00000ED76E000ED66E850ED56EF29418D065
:10288A00040000018A51D8B413D0550ED419D8A423
:10289A000DD0770ED519D8A409D09F0ED36506D0CE
:1028AA00A30ED36103D0D3C00CF004D001EC15F011
:1028BA00F2A4E6D7800ED56E0C501200000E116EEF
:1028CA00000E106E0E500F10D8B41CD0010E126EEE
:1028DA0004D0D8900E360F36122A0FAEFAD7D890F7
:1028EA00103611360E500C5C0F500D58D8A005D07A
:1028FA000E500C5E0F500D5A1080D8900F320E32C7
:10290A00122EEDD710C00CF011C00DF0120023509A
:10291A0024102510D8B406D0000E231A000E241A4B
:10292A00800E251A20C014F021C015F022C016F01E
:10293A0023C017F024C018F025C019F0EEEC0BF0F4
:10294A0014C020F015C021F016C022F01200F00EBB
:10295A00F66E2C0EF76E000EF86E0900F5CFFAF03F
:10296A0000EE60F07D0EEE6AE806FDE100EE43F04F
:10297A000F0EEE6AE806FDE153905392000EF86ED0
:10298A000F0EF76E00010EEF11F05204D8A402D018
:10299A008C8001D08C90020E5218D8A402D08C825E
:1029AA0001D08C92030E5218D8A402D08C8401D084
:1029BA008C94040E5218D8A402D08C8612008C96DD
:1029CA0012000001EF51D8B412005150D8B406D009
:1029DA00080E7E5D020E7F59D8B005D0000E8C6FAE
:1029EA00000E896F1200892B140E896101D0120022
:1029FA00000E896F8C2B120070EC16F0000E4E6ED2
:102A0A00080E4E6401D00CD04E50010DD30EF324A3
:102A1A00D96E000EF420DA6E000EDF6E4E2AF0D761
:102A2A00000E00018A6F000E4E6E120074EC16F052
:102A3A00000E4E6E080E4E6401D00CD04E50010DA1
:102A4A00D30EF324D96E000EF420DA6E000EDF6E78
:102A5A004E2AF0D7000E00018A6F000E4E6E120049
:102A6A005104D8B41200010E516E8A868B88000177
:102A7A00F551D8B408D0F8510CEC16F0D8EC11F096
:102A8A000009D8B412000001F7510CEC16F08D843D
:102A9A001200106E10C00EF00E460E46C2500E18EE
:102AAA00830B0E18C26EC280210EE82EFED700F0EC
:102ABA00C282C2B2FED7C4500E6EC3500C6E0EC094
:102ACA000DF012000D6E0DC074FF0CC073FF7F9ED7
:102ADA007F9C7F84F2CF0EF0F29E550E7E6EAA0E78
:102AEA007E6E7F8201D004007FB2FDD77F940EC034
:102AFA00F2FF1200030E1B6E10D0210E136E0F0E82
:102B0A00146E510E156E000E166E000E176E000E24
:102B1A00186E2CEC10F041EC16F01B061B28D8B4EA
:102B2A001200EBD70E6E0A0E0E02F3500E6E0CD088
:102B3A000400060E0D6E130E0C6EAE0EE82EFED7B6
:102B4A000C2EFCD70D2EFAD70E060E28D8B412007A
:102B5A00EFD711C0D9FF12C0DAFFDF500C6E0F5049
:102B6A0067EC15F020EE01F01150D9261250DA2246
:102B7A00DF500C6E0F2867EC15F012000DAE0DD069
:102B8A000CC00EF00DC00FF00E1E0F1E0E4A0F2ABB
:102B9A000EC00CF00FC00DF012000CC00CF00DC0EE
:102BAA000DF01200146E145035EC16F00F6E142846
:102BBA0035EC16F0106E0F50126E10C013F012C0E2
:102BCA000DF013C00EF012001A0E35EC16F00F0BB2
:102BDA00526E1B0E35EC16F0010B0001F56F1C0E40
:102BEA0035EC16F0010B0001F96F12000001F951E2
:102BFA00D8A4120080CF16F0163A0F0E161616B089
:102C0A0003D035EC15F0120028EC16F012000D6E08
:102C1A0008D004000D0E0C6EFC0EE82EFED70C2E0A
:102C2A00FCD70D060D28D8B41200F3D70001F251D3
:102C3A00D8B412008B8A640E0CEC16F08B9A640ED0
:102C4A000CEC16F012005150D8B41200000E516E5E
:102C5A008D948B980001F8510CEC16F08A961200AC
:102C6A000C6E0CC074FF7F9E7F9C7F8000F000F08A
:102C7A0000F000F073501200000E00018B6F9D8867
:102C8A0001D004009DB8FDD7050E0CEC16F0120019
:102C9A00ABA202D0AB98AB88ABA41200AECF01F0C6
:102CAA00AECF01F01200280ED76E000ED66EF29447
:102CBA00000E00018B6F9D8812008D948D928B9867
:102CCA008A96000E516E1200000ECC6E7F0ECA6EEE
:102CDA009E929D821200000ECA6E9D921200000EF4
:072CEA00CA6E9D921200FF6B
:020000040020DA
:08000000FFFFFFFFFFFFFFFF00
:020000040030CA
:0E00000015124A1EFF8991FF0FC00FE00F403E
:0200000400F00A
:10000000A406FA00C201F40141002D00C8006400FA
:1000100032000A05050A0A00010100010000000083
:00000001FF
